:100000000C942A000C9447000C9447000C94470071
:100010000C9447000C9447000C9447000C94470044
:100020000C9447000C9447000C9447000C94470034
:100030000C9447000C9447000C9447000C94470024
:100040000C9447000C9447000C9447000C94470014
:100050000C94470011241FBECFE5D4E0DEBFCDBF16
:1000600010E0A0E6B0E0E2E9F1E002C005900D92F8
:10007000A638B107D9F710E0A6E8B0E001C01D929C
:10008000A638B107E1F70E9453000C94C7000C9406
:100090000000FC0104C05D9BFECF8CB931968081CD
:1000A0008823C9F708950F931F93CF93DF9383E3BA
:1000B00089B910BC88E18AB98EE880BDC8ECD0E06F
:1000C0001DE00AE180E690E00E94490080E197E2AD
:1000D000FE013197F1F70197D9F75D9BFECF1CB96F
:1000E00080E197E2FE013197F1F70197D9F783E6B6
:1000F00090E00E94490080E197E2FE013197F1F71C
:100100000197D9F75D9BFECF1CB980E197E2FE0114
:100110003197F1F70197D9F78DE690E00E944900F9
:1001200080E197E2FE013197F1F70197D9F75D9BE6
:10013000FECF1CB980E197E2FE013197F1F70197FC
:10014000D9F782E890E00E94490080E197E2FE0141
:100150003197F1F70197D9F75D9BFECF0CB980E19C
:1001600097E2FE013197F1F70197D9F7ABCF83E31F
:1001700089B910BC88E18AB98EE880BD08955D9B7D
:10018000FECF8CB908955F9BFECF8CB10895F89493
:02019000FFCF9F
:1001920041540041542B434D47463D310041542BBD
:1001A200434D47533D2238363139333335363031BA
:0601B200220068696900EB
:00000001FF
